:100000008A11EF2FFF1B0C2883137F18831700081A
:10001000840A0319FF0A080000308A000408840AD1
:100020008207003401340034003400340A340034D0
:10003000003400346434003400340034E8340334D1
:10004000003400341034273400340034A0348634B3
:1000500001340034403442340F3400348034963458
:10006000983400340034E134F53405340034CA34B3
:100070009A343B345034523445345334533420345E
:100080005434483445342034423455345434543490
:100090004F344E3400344C3469346734683474342B
:1000A0005F344C344534563445344C342034693450
:1000B00073343A34003444344834543431343134B1
:1000C00020344534523452344F3452343A342D347F
:1000D0003134003476346F346C34743461346734C2
:1000E00065342834563429342034693473343A342E
:1000F00000344434483454343134313420344534B9
:10010000523452344F3452343A343034003444345C
:100110004834543431343134203445345234523438
:100120004F3452343A343234003444344834543442
:100130003134313420344534523452344F34523413
:100140003A343334003425346C3475342E34253449
:1001500036342E3436346C347534003444346134DF
:100160007A347A346C3469346E34673400345734FA
:1001700045344C3443344F344D34453400344234E8
:100180007234693467346834743400344834553414
:100190004D3449343A340034543445344D345034B9
:1001A0003A3400344434523441344B340034F10096
:1001B000F0013A3071020318E32830307102031C59
:1001C000E328F001F00A700C0800831203133708CB
:1001D000BB003808BC003908BD0003103C0D3D0DC4
:1001E000BE003E08C4004408031DFF280030BA00CA
:1001F0000030B9000030B8000030B7000800370800
:10020000BB003808BC003908BD0017300310BD0C16
:10021000BC0CBB0CFF3E031D06293B08BE003E087C
:10022000BF00B817FF30B705FF30B8050030B9057B
:100230003708C0003808C1003908C200C3018E3039
:10024000C402C41F41294408803A8F3E0318312953
:100250000030BA000030B9000030B8000030B700FC
:10026000080001300310C30CC20CC10CC00CFF3ECF
:10027000031D32290130BB003B08C40703195C2968
:10028000312918304402031C59290030BA000030CB
:10029000B9000030B8000030B70008000130BB00E2
:1002A0000310C00DC10DC20DC30DBB0B5029013091
:1002B000C4024408031D4E293F0803196A29C009D6
:1002C000C109C209C309C00A0319C10A0319C20A34
:1002D0000319C30A4308BA004208B9004108B8002C
:1002E0004008B7000800A03083120313C900490872
:1002F000D2004508F0004608F1004708F20000303F
:10030000F3000030F4000030F5008A1508268A1149
:100310000318A8292D3083120313C9005208840042
:100320004908831380000130C9004908D2074508F5
:10033000F0004608F1004708F2008A1556218A119C
:10034000700883120313C5007108C6007208C70045
:10035000831203134508B7004608B8004708B900E0
:100360008A11E5208A11831203133A08D100390853
:10037000D0003808CF003708CE005108FB005008E5
:10038000FA004F08F9004E08F8008A1576228A1103
:10039000780883120313A7007908A8007A08A90037
:1003A0004508AA004608AB004708AC008A15EC21B6
:1003B0008A11831203132708C5002808C6002908DC
:1003C000C7004508AA004608AB004708AC00243027
:1003D000A7007430A8004930A9008A111E228A1192
:1003E000831203132708B7002808B8002908B900AA
:1003F0008A11E5208A11831203133A08CD003908C7
:10040000CC003808CB003708CA009230C900490830
:10041000AA005108AE005008AD004F08AC004E08CD
:10042000AB004D08B2004C08B1004B08B0004A08C0
:10043000AF0052088A11E925A03008008312031387
:100440002708AD002808AE002908AF0003102E0DC4
:100450002F0DB0003008B1003108031D362A0030DE
:10046000A7000030A8000030A90008002A08AD004D
:100470002B08AE002C08AF0003102E0D2F0DB0007E
:100480003008B6003608031D4C2A0030A7000030A3
:10049000A8000030A900080036087B3EAD002D08FA
:1004A000B1072708AD002808AE002908AF001030BA
:1004B0000310AF0CAE0CAD0CFF3E031D582A2D08E7
:1004C000B0003008B6002A08AD002B08AE002C089A
:1004D000AF0010300310AF0CAE0CAD0CFF3E031D8F
:1004E0006A2A2D08B0003008B6068030AD002D080D
:1004F000B605A817AB17FF30AA05FF30AB050030D3
:10050000AC050030B2000030B3000030B40007305A
:10051000AD002D08B500271C9B2A2A08B2072B081E
:10052000031103182B0A031DB3072C08031103182A
:100530002C0A031DB40701300310A90CA80CA70C4A
:10054000FF3E031D9C2A01300310AA0DAB0DAC0D1C
:10055000FF3E031DA42A0130B502031D8B2A09307A
:10056000AD002D08B500271CC32A2A08B2072B08A6
:10057000031103182B0A031DB3072C0803110318DA
:100580002C0A031DB40701300310A90CA80CA70CFA
:10059000FF3E031DC42A01300310B40CB30CB20C8F
:1005A000FF3E031DCC2A0130B502031DB32A3208D9
:1005B000F0003308F1003408F2003108AD002D08D6
:1005C000F3003608AE002E08F4008A159427700850
:1005D00083120313A7007108A8007208A90008007D
:1005E00083120313AA00AF01B0013008803AFF0064
:1005F00080307F02031DFE2A05302F020318892B4D
:1006000083120313B101B201AB01AC012C08803A93
:10061000FF0080307F02031D0F2B08302B020318D0
:100620006B2B83120313AD01AE018619272B01300A
:10063000AD070318AE0A0030AE07F4302D06031DD7
:10064000152B2E03031D152BF001F10108000930B5
:10065000F300F30B292B2C2B83120313861D3F2B46
:100660003208F4003108F3000310F30DF40D7308A1
:10067000013EB10074080318013E003E432B0310F5
:10068000310DB100320DB200AD01AE01861D5A2B05
:100690000130AD070318AE0A0030AE0788302D06D2
:1006A000133003192E06031D462BFF30F000FF30D8
:1006B000F10008000130AB070318AC0A0030AC07AA
:1006C0002C08803AFF0080307F02031D692B083020
:1006D0002B02031C112B831203132F08F300730743
:1006E000203E8400310883138000840A3208800091
:1006F0000130AF070318B00A0030B0073008803A65
:10070000FF0080307F02031D872B05302F02031C62
:10071000002B8312031324082207F3002508031873
:10072000250A2307F40026087307F5002708031895
:10073000270A7407F60020087507F7002108031838
:10074000210A7607F80029087806031DA92B280836
:100750007706031DCD2B2A08840020088313800010
:10076000840A210880007008840022088000840A1E
:10077000230880007108840024088000840A25086A
:1007800080007208840026088000840A2708800000
:100790000130F0000030F10008000230F0000030BD
:1007A000F1000800780883120313A0007908A10063
:1007B0007A08A2000310210D220DA3002308A60031
:1007C0007B08A0007C08A1007D08A2000310210D79
:1007D000220DA3002308A50026080319FB2B2508DA
:1007E00026020318022C2603FF3A2507A000193021
:1007F0002002031C022C7B08F8007C08F9007D080D
:10080000FA00080025080319080026082502031825
:10081000112C2503FF3A2607A000193020020318E7
:1008200008000630A0002008A400FA1BA417FD1B36
:100830002417F917FF30F805FF30F9050030FA05E5
:10084000FC17FF30FB05FF30FC050030FD052508D7
:1008500026020318512C01300310FB0DFC0DFD0D79
:10086000FF3E031D2C2C0130A50225082606031986
:100870004C2C0130A4022408073903194C2C2B2CD2
:1008800001300310FA0CF90CF80CFF3E031D412C4B
:100890000130A0002008A6072608250603197A2C97
:1008A000402C2608250203187A2C01300310F80D7D
:1008B000F90DFA0DFF3E031D562C0130A602250846
:1008C00026060319762C0130A402240807390319DF
:1008D000762C552C01300310FD0CFC0CFB0CFF3E5C
:1008E000031D6B2C0130A0002008A5072608250653
:1008F000031D6A2CA41F8C2CFF30F806FF30F9066C
:10090000FF30FA060130F807003003180130F9070C
:10091000003003180130FA07241F9E2CFF30FB061D
:10092000FF30FC06FF30FD060130FB0700300318E6
:100930000130FC07003003180130FD07A4017808DE
:10094000FB07790803110318790A031DFC077A08CD
:10095000031103187A0A031DFD07FD1FC12CFF3088
:10096000FB06FF30FC06FF30FD060130FB070030C0
:1009700003180130FC07003003180130FD07A40103
:10098000A40A7B08F0007C08F1007D08F20026082C
:10099000A0002008F3002408A1002108F4008A1513
:1009A00094277008F8007108F9007208FA0008002E
:1009B0008A1586218A118A15A4238A11700371046D
:1009C000031DD92D3E3083120313B3003308F0000A
:1009D0004230B4003408F1004030B5003508F20070
:1009E00044308A11F0228A1170037104031D7A2D9C
:1009F0008A154E218A11831203134308A500420869
:100A0000A4000A30A6000030A70036308A15512213
:100A10008A11831203134508A5004408A4000A3074
:100A2000A6000030A7003A308A1551228A1183129D
:100A300003134308803AFF0080307F02031D222DFC
:100A40002430420203184B2D831203134308803ACB
:100A5000FF0080307F02031D2F2D14304202031C43
:100A60004B2D831203134508803AFF0080307F022C
:100A7000031D3C2D4C30440203184B2D83120313ED
:100A80004508803AFF0080307F02031D492D0F305A
:100A9000440203184F2D831203130515522D8312A0
:100AA00003130511F401F40A01308A15E7238A11B2
:100AB000BB30F5008030F6008A1531238A113630BC
:100AC000F5000030F6008A1531238A11F401F40A8A
:100AD00002308A15E7238A11B530F5008030F60020
:100AE0008A1531238A113A30F5000030F6008A1554
:100AF000312308003E3083120313B3003308F000A3
:100B00004230B4003408F1004030B5003508F2003E
:100B100044308A11F0228A11700A031DA22D710A35
:100B2000031DA22D8A154E218A11F401F40A013009
:100B30008A15E7238A114A30F5008030F6008A15BD
:100B4000312308003E3083120313B3003308F00052
:100B50004230B4003408F1004030B5003508F200EE
:100B600044308A11F0228A11023070067104031D8C
:100B7000C92D8A154E218A11F401F40A01308A1513
:100B8000E7238A117630F5008030F6008A1531238C
:100B900008008A154E218A11F401F40A01308A15E1
:100BA000E7238A116830F5008030F6008A1531237A
:100BB00008008A154E218A11F401F40A01308A15C1
:100BC000E7238A118430F5008030F6008A1531233E
:100BD000080083120313BE002B30B3003308B900A2
:100BE0000130AA07FF302A0784008A110C208A11DD
:100BF000B3003308C30043080319EA2F2530430626
:100C000003190E2E4308B3003E08840033088313F3
:100C100080000130B3003308BE07F02DBF01C001D2
:100C2000B8012A0884008A110C208A118A11D72061
:100C30008A11031C512E83120313BF01C0010A3015
:100C4000F0000030F100831203134008F3003F0866
:100C5000F2008A150C228A11710883120313C00056
:100C60007008BF002A0884008A110C208A11D03E27
:100C7000B300FF3003180030B4003308BF07031877
:100C8000C00A3408C0070130B3003308AA072A0895
:100C900084008A110C208A118A11D7208A11031826
:100CA0001F2E831203132A0884008A110C208A1134
:100CB0002E3A031D932E0130B3003308AA07C10159
:100CC000C2012A0884008A110C208A118A11D720B7
:100CD0008A11031C9F2E831203134208F10041085E
:100CE000F0000A30F2000030F3008A150C228A115D
:100CF000831203132A0884008A110C208A117007BA
:100D0000B3000030031801307107B4003308D03E3F
:100D1000C10034080318013EFF3EC2000130B30099
:100D20003308AA07612E83120313C101C2019F2E4B
:100D300038169F2EC030B3003308B804B42E0130EB
:100D400083120313AA07FF302A0784008A110C209C
:100D50008A11C300003A0319EA2F6C3A0319982E3E
:100D6000193A03199A2EF02D381EC62E3908840020
:100D700083130008BA00840A0008BB00840A000834
:100D8000BC00840A0008BD000430D52E3908840058
:100D900083130008B300840A0008B4003308BA00C3
:100DA0003408BB00BC01BD010230B3003308B907F1
:100DB00041084204031DE82E3D083C043B043A046C
:100DC000031DE82E0130C1070318C20A0030C20714
:100DD000C301C30A0A3043060319222F4308B30094
:100DE00001300310B30DFF3E031DF12E0310330D30
:100DF000013E84008A110C208A11B4008A110C2053
:100E00008A11B5008A110C208A11B6008A110C20B3
:100E10008A11B70037083D02031D182F36083C021F
:100E2000031D182F35083B02031D182F34083A0202
:100E3000031C222F0130B3003308C3070A304306D6
:100E4000031DEE2E4308B300B401B31BB4033408F2
:100E5000803AB5004208803A3502031D312F41081F
:100E6000330203183A2F831203134108B3003308E7
:100E7000C300542F831203134308B300B401B31B00
:100E8000B4034208803AB5003408803A3502031DA5
:100E90004B2F330841020318542F831203134308C6
:100EA000C100C201C11BC203831203134308B30074
:100EB000B401B31BB4033408803AB5004008803A4B
:100EC0003502031D652F3F0833020318752F831267
:100ED00003134308B300B401B31BB4033308BF02C8
:100EE0003408031CC003C002792F83120313BF010F
:100EF000C0013F0840040319DD2F2030B3003E0835
:100F000084003308831380000130B3003308BE0728
:100F1000FF30BF070318C00AFF30C007792F003029
:100F2000A3000030A2000030A1000A30A000410858
:100F3000B30001300310B30DFF3E031D9A2F0310C1
:100F4000330D013E84008A110C208A11F0008A11B1
:100F50000C208A11F1008A110C208A11F2008A11EA
:100F60000C208A11F3003D08F7003C08F6003B080E
:100F7000F5003A08F4008A1565268A117308831271
:100F80000313A7007208A6007108A5007008A4004A
:100F90008A15BF248A11831203132008303EB4003F
:100FA0003408C3004308B3003E08840033088313A9
:100FB00080000130B3003308BE07FF30C1070318BB
:100FC000C20AFF30C207410A031D8F2F420A0319CC
:100FD000F02D8F2F3E0884008313800108008A15AE
:100FE0004C218A11E0008A154D218A11E1008313FA
:100FF000A0308400B1308A155E2183018A15292F23
:101298000134003400308A159D218A1501308A15E1
:1012A8009D21080072087104700403190800803039
:1012B800F206080064008001840A04060319003459
:1012C80004065F29831603139B011B149B14051442
:1012D800851405110130860008007B08F0007C08A1
:1012E800F100F2018E3083120313A6002608F300E2
:1012F800F4018A1594277008FB007108FC00720835
:10130800FD00080083160313861183120313861148
:101318001A30F100F830F000F00B9029F10B902909
:1013280000008316031386150430F000F00B9A2989
:101338000800F30083120313861073088A15B52179
:101348008A158312031306150630F2003030F100B7
:10135800F10BAC29F20BAC29000083120313061120
:101368000800F000701CBC29831203130616BF295D
:10137800831203130612F01CC3298616C429861289
:10138800701DC8290617C9290613F01DCD2986170F
:101398000800861308008A154E218A15F401F40AFC
:1013A80001308A15E7238A15A630F5008030F6004B
:1013B8008A1531238A15F401F40A02308A15E723C5
:1013C8008A152930F5008030F6008A153123080087
:1013D800831203132908280427040319F5298030E8
:1013E800A9062A08F8002B08F9002C08FA00270893
:1013F800FB002808FC002908FD008A11D223780880
:1014080083120313A7007908A8007A08A900080026
:10141800F401F501701C162A7208F4070318F50A7E
:101428007308F50701300310F20DF30DFF3E031D9D
:10143800172A01300310F10CF00CFF3E031D1E2A81
:1014480070087104031D0E2A7508F1007408F00075
:10145800080083120313600361040319061C482A59
:101468000D30F300FB30F200F20B382AF30B382A68
:101478003D2A83120313E001E101061C4E2A0130C4
:10148800F0000030F100080006184E2A0130E00094
:101498000030E100F001F101080083120313A900F4
:1014A8002908FD007D08A800A51F6A2A2D30FD0027
:1014B800290884007D08831380000130FD007D0821
:1014C800A907A409A509A40A0319A50A2508F9006A
:1014D8002408F8002708FB002608FA0029088A15BE
:1014E800C32608008E30FC007C08FD00FF307B0519
:1014F80003198C2A01300310FB0CFA0CF90CF80CB8
:10150800FF3E031D7F2A0130FC007C08FD077A2A74
:101518007808F0007908F1007A08F2007D08FC00EC
:101528007C08F300F4018A1594277008F800710804
:10153800F9007208FA000800831603139F171F1793
:101548001F129F12831203131F139F137008F200B8
:10155800F20DF20DF20D1F087206C73972069F00D0
:101568001F14C730F200B82AF20BB72ABB2ABC2ACC
:10157800831203131F151F19BF2A1E08F4008316B0
:1015880003131E08F3007408F1007308F000080044
:10159800700871040319F92AF501F50AF11BE02A0C
:1015A80001300310F00DF10DFF3E031DD52A013067
:1015B800F4007408F507D22A71087302031DE62A9D
:1015C80070087202031CEE2A7008F2027108031CEC
:1015D800F303F30201300310F10CF00CFF3E031D7E
:1015E800EF2A0130F502031DE02A7308F1007208A2
:1015F800F0000800F40074080F39F1007108F200D7
:101608007408F039F1007108F3008312031386148B
:101618007308F10004300310F10CFF3E031D0F2B7B
:1016280071088A15B5218A158312031306150D3022
:10163800F100F10B1D2B83120313061172088A1592
:10164800B5218A158312031306150D30F100F10B2D
:101658002B2B8312031306110800FA01FB017A08E9
:101668007507F8007608F7000318F70AFA1BF7035E
:101678007708F900790883120313FF0078088400BB
:101688008A1102208A15003A031908007A0875079A
:10169800F8007608F7000318F70AFA1BF70377082B
:1016A800F900790883120313FF00780884008A116F
:1016B80002208A158A15FE228A150130FA070318B6
:1016C800FB0A0030FB07332BF501F60170087104A3
:1016D80003199F2BF701F70AF11B7E2B013003102A
:1016E800F00DF10DFF3E031D732B0130F40074085B
:1016F800F707702B01300310F50DF60DFF3E031DA3
:101708007F2B71087302031D8B2B70087202031C58
:10171800942B7008F2027108031CF303F30275148A
:1017280001300310F10CF00CFF3E031D952B013026
:10173800F702031D7E2B7608F1007508F0000800FB
:10174800F201F30183120313861DBA2B0130F2074D
:101758000318F30A0030F307F4307206031DA62BB2
:101768007303031DA62BF001F1010800F201F30138
:101778008619CE2B0130F2070318F30A0030F3075D
:10178800F4307206031DBC2B7303031DBC2BF00140
:10179800F1010800F201F301861DE22B0130F20786
:1017A8000318F30A0030F307F4307206031DD02B38
:1017B8007303031DD02BF001F10108000130F00084
:1017C8000030F1000800F7007703031D092C7408A6
:1017D8007F3EF5007508FA007A08F500043003101A
:1017E800F50CFF3E031DF32B7508F6007608F8008C
:1017F8007A080F39F5007508F90078088A159D21CF
:101808008A1579088A159D21080002307706031D7C
:1018180008007408BF3EF5007508FA007A08F5005C
:1018280004300310F50CFF3E031D152C7508F60057
:101838007608F8007A080F39F5007508F900780875
:101848008A159D218A1579088A159D21080000307E
:101858008A15B5218A151A30F500F830F400F40B12
:10186800332CF50B332C000003308A159D218A1583
:101878000730F5007D30F400F40B402CF50B402CBC
:1018880003308A159D218A150F30F5004730F40082
:10189800F40B4C2CF50B4C2C512C03308A159D2144
:1018A8008A1502308A159D218A1502308A159D21D4
:1018B8008A1508308A159D218A1500308A159D21C0
:1018C8008A150C308A159D218A1500308A159D21AC
:1018D8008A1506308A159D2108008A155D258A1506
:1018E8007908FD007808FC008A154E218A15F40154
:1018F800F40A01308A15E7238A153A30F50080305A
:10190800F6008A1531238A15F401F40A02308A1583
:10191800E7238A1503307D02313003197C02031C4A
:101928009C2CC130F5008030F6008A153123080060
:1019380003307D02313003197C020318B12C0030CA
:101948007D02CD3003197C02031CB12CAE30F500AA
:101958008030F6008A153123080000307D02CD3032
:1019680003197C02031808009D30F5008030F6004A
:101978008A15312308008312031323082204210443
:1019880020040319042DA901A90AA31BD92C01308D
:10199800A8000310A00DA10DA20DA30DA80BCD2C1E
:1019A8000130A8002808A907C92C23082702031D0D
:1019B800E72C22082602031DE72C21082502031D17
:1019C800E72C20082402031CF72C2008A402210875
:1019D800031C210FA5022208031C220FA6022308BC
:1019E800031C230FA70201300310A30CA20CA10CA7
:1019F800A00CFF3E031DF82C0130A902031DD92CB1
:101A08002708A3002608A2002508A1002408A00092
:101A1800080083120313A201A301A401A50125084C
:101A2800803AFF0080307F02031D1C2D0530240200
:101A380003184C2D0030F000F1008A15A0228A15F9
:101A4800710883120313A1007008A000C730FA00C0
:101A58002D2DFA0B2C2D302D312D83120313200838
:101A68002207A20021080318210A2307A300013036
:101A7800A4070318A50A0030A5072508803AFF0027
:101A880080307F02031D4A2D05302402031C1E2DC1
:101A98000530F0000030F100831203132308F3002F
:101AA8002208F2008A1568237108F9007008F80006
:101AB800080083120313A401A5010130F0000030CF
:101AC800F1008A15A0228A15710883120313A10058
:101AD8007008A000A601A7012708803AFF008030FF
:101AE8007F02031D792D053026020318A12D013030
:101AF800F0000030F1008A15A0228A1571088312BF
:101B08000313A3007008A20022082407A4002308D6
:101B18000318230A2507A5000130A6070318A70AFA
:101B28000030A7072708803AFF0080307F02031D96
:101B38009F2D05302602031C7B2D0530F000003058
:101B4800F100831203132508F3002408F2008A1514
:101B580068237108F9007008F80008002330831220
:101B68000313A700A030A8003B30A9008A150D2553
:101B78008A157908FC007808FB008A1571218A15F6
:101B88007B0883120313AA007C08AB007D08AC0015
:101B98008A111E228A15831203132708D7002808E2
:101BA800D8002908D9005708C5005808C6005908A0
:101BB800C7005530D3005308C8008A1173218A150D
:101BC80083120313D4005408DA008A154E218A15AB
:101BD800F401F40A01308A15E7238A155930F50013
:101BE8008030F6008A1531238A15F401F40A023090
:101BF8008A15E7238A15831203135A08F500003063
:101C0800F6008A1531230800F21F2F2E0030F60047
:101C18000030F7008030F8007009F9007109FA0007
:101C28007209FB00F90A0319FA0A0319FB0A790871
:101C3800F6077A0803187A0F222E232EF7077B0857
:101C480003187B0F282E292EF8077608F00077084E
:101C5800F1007808F200F51F562E0030F60000302B
:101C6800F7008030F8007309F9007409FA00750963
:101C7800FB00F90A0319FA0A0319FB0A7908F6079F
:101C88007A0803187A0F492E4A2EF7077B0803189B
:101C98007B0F4F2E502EF8077608F3007708F400D4
:101CA8007808F5008030F2068030F5067508720273
:101CB800031D080074087102031D080073087002F0
:101CC80008000030FC000030FB000030FA00003053
:101CD800F90073087204710470040319BA2EFD0127
:101CE800FD0AF31B852E0130F8000310F00DF10DED
:101CF800F20DF30DF80B792E0130F8007808FD0786
:101D0800752E0130F8000310F90DFA0DFB0DFC0DCE
:101D1800F80B872E73087702031D9C2E7208760233
:101D2800031D9C2E71087502031D9C2E70087402F9
:101D3800031CAD2E7008F4027108031C710FF50224
:101D48007208031C720FF6027308031C730FF70264
:101D5800791401300310F30CF20CF10CF00CFF3E77
:101D6800031DAE2E0130FD02031D852E7C08F300F5
:101D78007B08F2007A08F1007908F0000800831265
:101D88000313A3007908A1007808A0007B08F100DC
:101D98007A08F0002108F3002008F2008A15682369
:101DA8008A15710883120313A1007008A00001307E
:101DB800FC007C08A30720082104031DCA2E230861
:101DC8008400831380010130A3027B08F1007A08A4
:101DD800F0007908F3007808F2008A15CC228A15F9
:101DE8007008FC007C0883120313A2007B08F10032
:101DF8007A08F0007908F3007808F2008A15682359
:101E08008A157108F9007008F8000A308312031364
:101E18002202031C132F0730FC007C08A207303075
:101E2800FC007C08A2072208FC00230884007C0828
:101E3800831380000130A30278087904031DE92E7A
:101E48000130FC007C08A307080083120313DE019D
:101E5800DF018A1566218A158A152B248A150B300D
:101E680083120313DD002630DC005D30DB00DB0B62
:101E78003B2FDC0B3B2FDD0B3B2F8312031305118C
:101E88008A152D228A15700871040319532F013001
:101E980083120313DE070318DF0A0030DF07003060
:101EA800831203135F02043003195E02031C742FAC
:101EB8000130DE000030DF00742F05118A15CF21B4
:101EC8008A15892F05118A15B2258A15892F0511BA
:101ED8008A1571248A15892F8A11D8248A15892F81
:101EE800831203135F08003A03197B2F892F5E08BA
:101EF800003A0319612F013A0319662F033A0319AF
:101F08006B2F013A0319702F892F82308312031324
:101F1800DC00DD30DB00DB0B8F2FDC0B8F2F442F39
:101F2800730803199C2F720871047004031DAF2FE6
:101F38000030F0000030F1000030F20008000130FD
:101F4800F5007508F30701300310F20CF10CF00CE2
:101F5800FF3E031DA82FFE3072050319CA2FA32FB9
:101F68000130F5007508F3070130F0070030031859
:101F78000130F107003003180130F2070130031077
:101F8800F20CF10CF00CFF3E031DC32FFF3072055D
:101F98000319D92FB42F0130F30201300310F00DCB
:101FA800F10DF20DFF3E031DD22FF11BDF2F023082
:101FB80073020318CF2F7318E72FFF30F0057F3017
:101FC800F105FF30F2050310F30C7308F500F60174
:101FD800F70110300310F50DF60DF70DFF3E031D48
:101FE800EE2F7508F0047608F1047708F2047408F7
:081FF80003190800F2170800AC
:02400E0069FF48
:00000001FF
